{
  "contractName": "TechInsurance",
  "abi": [
    {
      "inputs": [
        {
          "internalType": "address payable",
          "name": "_insOwner",
          "type": "address"
        }
      ],
      "stateMutability": "nonpayable",
      "type": "constructor"
    },
    {
      "inputs": [
        {
          "internalType": "address",
          "name": "",
          "type": "address"
        },
        {
          "internalType": "uint256",
          "name": "",
          "type": "uint256"
        }
      ],
      "name": "client",
      "outputs": [
        {
          "internalType": "bool",
          "name": "isValid",
          "type": "bool"
        },
        {
          "internalType": "uint256",
          "name": "time",
          "type": "uint256"
        }
      ],
      "stateMutability": "view",
      "type": "function"
    },
    {
      "inputs": [],
      "name": "insOwner",
      "outputs": [
        {
          "internalType": "address payable",
          "name": "",
          "type": "address"
        }
      ],
      "stateMutability": "view",
      "type": "function"
    },
    {
      "inputs": [
        {
          "internalType": "uint256",
          "name": "",
          "type": "uint256"
        }
      ],
      "name": "productIndex",
      "outputs": [
        {
          "internalType": "uint256",
          "name": "productId",
          "type": "uint256"
        },
        {
          "internalType": "string",
          "name": "productName",
          "type": "string"
        },
        {
          "internalType": "uint256",
          "name": "price",
          "type": "uint256"
        },
        {
          "internalType": "bool",
          "name": "offered",
          "type": "bool"
        }
      ],
      "stateMutability": "view",
      "type": "function"
    },
    {
      "inputs": [
        {
          "internalType": "address",
          "name": "owner",
          "type": "address"
        }
      ],
      "name": "_balanceOf",
      "outputs": [
        {
          "internalType": "uint256",
          "name": "",
          "type": "uint256"
        }
      ],
      "stateMutability": "view",
      "type": "function"
    },
    {
      "inputs": [
        {
          "internalType": "uint256",
          "name": "_id",
          "type": "uint256"
        }
      ],
      "name": "_ownerOf",
      "outputs": [
        {
          "internalType": "address",
          "name": "",
          "type": "address"
        }
      ],
      "stateMutability": "view",
      "type": "function"
    },
    {
      "inputs": [
        {
          "internalType": "uint256",
          "name": "_productId",
          "type": "uint256"
        },
        {
          "internalType": "string",
          "name": "_productName",
          "type": "string"
        },
        {
          "internalType": "uint256",
          "name": "_price",
          "type": "uint256"
        }
      ],
      "name": "addProduct",
      "outputs": [],
      "stateMutability": "nonpayable",
      "type": "function"
    },
    {
      "inputs": [
        {
          "internalType": "uint256",
          "name": "_productIndex",
          "type": "uint256"
        }
      ],
      "name": "changeFalse",
      "outputs": [],
      "stateMutability": "nonpayable",
      "type": "function"
    },
    {
      "inputs": [
        {
          "internalType": "uint256",
          "name": "_productIndex",
          "type": "uint256"
        }
      ],
      "name": "changeTrue",
      "outputs": [],
      "stateMutability": "nonpayable",
      "type": "function"
    },
    {
      "inputs": [
        {
          "internalType": "uint256",
          "name": "_productIndex",
          "type": "uint256"
        },
        {
          "internalType": "uint256",
          "name": "_price",
          "type": "uint256"
        }
      ],
      "name": "changePrice",
      "outputs": [],
      "stateMutability": "nonpayable",
      "type": "function"
    },
    {
      "inputs": [
        {
          "internalType": "uint256",
          "name": "_productIndex",
          "type": "uint256"
        }
      ],
      "name": "buyInsurance",
      "outputs": [],
      "stateMutability": "payable",
      "type": "function"
    },
    {
      "inputs": [
        {
          "internalType": "address",
          "name": "to",
          "type": "address"
        },
        {
          "internalType": "uint256",
          "name": "_id",
          "type": "uint256"
        }
      ],
      "name": "transferInsurance",
      "outputs": [],
      "stateMutability": "nonpayable",
      "type": "function"
    },
    {
      "inputs": [
        {
          "internalType": "address",
          "name": "from",
          "type": "address"
        },
        {
          "internalType": "address",
          "name": "to",
          "type": "address"
        },
        {
          "internalType": "uint256",
          "name": "tokenId",
          "type": "uint256"
        }
      ],
      "name": "_transfer",
      "outputs": [],
      "stateMutability": "nonpayable",
      "type": "function"
    }
  ],
  "bytecode": "0x608060405234801561001057600080fd5b506040516113e43803806113e48339818101604052602081101561003357600080fd5b8101908080519060200190929190505050806000806101000a81548173ffffffffffffffffffffffffffffffffffffffff021916908373ffffffffffffffffffffffffffffffffffffffff16021790555050611350806100946000396000f3fe6080604052600436106100a75760003560e01c8063a86a658c11610064578063a86a658c146103af578063af945495146103dd578063b3de019c14610455578063cca3e8321461049a578063cf80d867146104ff578063f6344b861461053a576100a7565b806330e0789e146100ac578063322d5a331461012757806338350541146101f25780634268ff2d1461025757806376169baf146103335780639488d2721461036e575b600080fd5b3480156100b857600080fd5b50610125600480360360608110156100cf57600080fd5b81019080803573ffffffffffffffffffffffffffffffffffffffff169060200190929190803573ffffffffffffffffffffffffffffffffffffffff16906020019092919080359060200190929190505050610595565b005b34801561013357600080fd5b506101606004803603602081101561014a57600080fd5b81019080803590602001909291905050506106c2565b60405180858152602001806020018481526020018315158152602001828103825285818151815260200191508051906020019080838360005b838110156101b4578082015181840152602081019050610199565b50505050905090810190601f1680156101e15780820380516001836020036101000a031916815260200191505b509550505050505060405180910390f35b3480156101fe57600080fd5b5061022b6004803603602081101561021557600080fd5b8101908080359060200190929190505050610797565b604051808273ffffffffffffffffffffffffffffffffffffffff16815260200191505060405180910390f35b34801561026357600080fd5b506103316004803603606081101561027a57600080fd5b8101908080359060200190929190803590602001906401000000008111156102a157600080fd5b8201836020820111156102b357600080fd5b803590602001918460018302840111640100000000831117156102d557600080fd5b91908080601f016020809104026020016040519081016040528093929190818152602001838380828437600081840152601f19601f82011690508083019250505050505050919291929080359060200190929190505050610846565b005b34801561033f57600080fd5b5061036c6004803603602081101561035657600080fd5b81019080803590602001909291905050506108fe565b005b34801561037a57600080fd5b50610383610a3f565b604051808273ffffffffffffffffffffffffffffffffffffffff16815260200191505060405180910390f35b6103db600480360360208110156103c557600080fd5b8101908080359060200190929190505050610a63565b005b3480156103e957600080fd5b506104366004803603604081101561040057600080fd5b81019080803573ffffffffffffffffffffffffffffffffffffffff16906020019092919080359060200190929190505050610c75565b6040518083151581526020018281526020019250505060405180910390f35b34801561046157600080fd5b506104986004803603604081101561047857600080fd5b810190808035906020019092919080359060200190929190505050610cb3565b005b3480156104a657600080fd5b506104e9600480360360208110156104bd57600080fd5b81019080803573ffffffffffffffffffffffffffffffffffffffff169060200190929190505050610de0565b6040518082815260200191505060405180910390f35b34801561050b57600080fd5b506105386004803603602081101561052257600080fd5b8101908080359060200190929190505050610e62565b005b34801561054657600080fd5b506105936004803603604081101561055d57600080fd5b81019080803573ffffffffffffffffffffffffffffffffffffffff16906020019092919080359060200190929190505050610fa2565b005b600073ffffffffffffffffffffffffffffffffffffffff168273ffffffffffffffffffffffffffffffffffffffff1614156105cf57600080fd5b6001600360008573ffffffffffffffffffffffffffffffffffffffff1673ffffffffffffffffffffffffffffffffffffffff168152602001908152602001600020600082825403925050819055506001600360008473ffffffffffffffffffffffffffffffffffffffff1673ffffffffffffffffffffffffffffffffffffffff16815260200190815260200160002060008282540192505081905550816004600083815260200190815260200160002060006101000a81548173ffffffffffffffffffffffffffffffffffffffff021916908373ffffffffffffffffffffffffffffffffffffffff160217905550505050565b6001602052806000526040600020600091509050806000015490806001018054600181600116156101000203166002900480601f0160208091040260200160405190810160405280929190818152602001828054600181600116156101000203166002900480156107745780601f1061074957610100808354040283529160200191610774565b820191906000526020600020905b81548152906001019060200180831161075757829003601f168201915b5050505050908060020154908060030160009054906101000a900460ff16905084565b6000806004600084815260200190815260200160002060009054906101000a900473ffffffffffffffffffffffffffffffffffffffff169050600073ffffffffffffffffffffffffffffffffffffffff168173ffffffffffffffffffffffffffffffffffffffff16141561080a57600080fd5b6004600084815260200190815260200160002060009054906101000a900473ffffffffffffffffffffffffffffffffffffffff16915050919050565b61084e6111bd565b60405180608001604052808581526020018481526020018381526020016001151581525090508060016000600560008154809291906001019190505581526020019081526020016000206000820151816000015560208201518160010190805190602001906108be9291906111e7565b506040820151816002015560608201518160030160006101000a81548160ff0219169083151502179055509050506108f8336005546110df565b50505050565b60008054906101000a900473ffffffffffffffffffffffffffffffffffffffff1673ffffffffffffffffffffffffffffffffffffffff163373ffffffffffffffffffffffffffffffffffffffff16146109bf576040517f08c379a00000000000000000000000000000000000000000000000000000000081526004018080602001828103825260158152602001807f796f7520617265206e6f7420746865206f776e6572000000000000000000000081525060200191505060405180910390fd5b60006001600083815260200190815260200160002060030160006101000a81548160ff0219169083151502179055506040517f08c379a00000000000000000000000000000000000000000000000000000000081526004018080602001828103825260348152602001806112a16034913960400191505060405180910390fd5b60008054906101000a900473ffffffffffffffffffffffffffffffffffffffff1681565b600115156001600083815260200190815260200160002060030160009054906101000a900460ff16151514610b00576040517f08c379a000000000000000000000000000000000000000000000000000000000815260040180806020018281038252601e8152602001807f54686120496e737572616e6365206973206e6f7420617661696c61626c65000081525060200191505060405180910390fd5b610b08611267565b604051806040016040528060011515815260200142815250905080600260003373ffffffffffffffffffffffffffffffffffffffff1673ffffffffffffffffffffffffffffffffffffffff168152602001908152602001600020600084815260200190815260200160002060008201518160000160006101000a81548160ff0219169083151502179055506020820151816001015590505060016000838152602001908152602001600020600201543414610c0e576040517f08c379a00000000000000000000000000000000000000000000000000000000081526004018080602001828103825260218152602001806112d56021913960400191505060405180910390fd5b6000600160008481526020019081526020016000206002015490503373ffffffffffffffffffffffffffffffffffffffff166108fc829081150290604051600060405180830381858888f19350505050158015610c6f573d6000803e3d6000fd5b50505050565b6002602052816000526040600020602052806000526040600020600091509150508060000160009054906101000a900460ff16908060010154905082565b60008054906101000a900473ffffffffffffffffffffffffffffffffffffffff1673ffffffffffffffffffffffffffffffffffffffff163373ffffffffffffffffffffffffffffffffffffffff1614610d74576040517f08c379a00000000000000000000000000000000000000000000000000000000081526004018080602001828103825260158152602001807f796f7520617265206e6f7420746865206f776e6572000000000000000000000081525060200191505060405180910390fd5b8060016000848152602001908152602001600020600201819055506040517f08c379a00000000000000000000000000000000000000000000000000000000081526004018080602001828103825260348152602001806112a16034913960400191505060405180910390fd5b60008073ffffffffffffffffffffffffffffffffffffffff168273ffffffffffffffffffffffffffffffffffffffff161415610e1b57600080fd5b600360008373ffffffffffffffffffffffffffffffffffffffff1673ffffffffffffffffffffffffffffffffffffffff168152602001908152602001600020549050919050565b60008054906101000a900473ffffffffffffffffffffffffffffffffffffffff1673ffffffffffffffffffffffffffffffffffffffff163373ffffffffffffffffffffffffffffffffffffffff1614610f23576040517f08c379a00000000000000000000000000000000000000000000000000000000081526004018080602001828103825260158152602001807f796f7520617265206e6f7420746865206f776e6572000000000000000000000081525060200191505060405180910390fd5b600180600083815260200190815260200160002060030160006101000a81548160ff0219169083151502179055506040517f08c379a00000000000000000000000000000000000000000000000000000000081526004018080602001828103825260348152602001806112a16034913960400191505060405180910390fd5b8173ffffffffffffffffffffffffffffffffffffffff163373ffffffffffffffffffffffffffffffffffffffff161415611027576040517f08c379a00000000000000000000000000000000000000000000000000000000081526004018080602001828103825260258152602001806112f66025913960400191505060405180910390fd5b3373ffffffffffffffffffffffffffffffffffffffff1661104782610797565b73ffffffffffffffffffffffffffffffffffffffff16146110d0576040517f08c379a00000000000000000000000000000000000000000000000000000000081526004018080602001828103825260148152602001807f20596f7572206e6f7420746865204f776e65722000000000000000000000000081525060200191505060405180910390fd5b6110db338383610595565b5050565b600073ffffffffffffffffffffffffffffffffffffffff168273ffffffffffffffffffffffffffffffffffffffff16141561111957600080fd5b6001600360008473ffffffffffffffffffffffffffffffffffffffff1673ffffffffffffffffffffffffffffffffffffffff16815260200190815260200160002060008282540192505081905550816004600083815260200190815260200160002060006101000a81548173ffffffffffffffffffffffffffffffffffffffff021916908373ffffffffffffffffffffffffffffffffffffffff1602179055505050565b60405180608001604052806000815260200160608152602001600081526020016000151581525090565b828054600181600116156101000203166002900490600052602060002090601f016020900481019282601f1061122857805160ff1916838001178555611256565b82800160010185558215611256579182015b8281111561125557825182559160200191906001019061123a565b5b5090506112639190611283565b5090565b6040518060400160405280600015158152602001600081525090565b5b8082111561129c576000816000905550600101611284565b509056fe646f206e6f742072756e20746869732066756e6374696f6e20616761696e20697420636f737420796f7520736f6d652066656573636865636b2074686520616d6f756e74206f662074686520496e737572616e636520596f752061726520746865206f776e6572206f66207468697320496e737572616e636520a26469706673582212207ccbbd60d0f59e1f990e7b35fff13a71c35d0dea409c935e5326e0939abd534064736f6c63430007000033",
  "immutableReferences": {},
  "source": "//SPDX-License-Identifier: MIT\r\npragma solidity ^0.7.0 ;\r\n\r\n// import \"./InsuranceInterface.sol\";\r\n //import \"../github/OpenZeppelin/openzeppelin-contracts/contracts/token/ERC721/ERC721.sol\";\r\n //import \"https://github.com/OpenZeppelin/openzeppelin-contracts/blob/master/contracts/token/ERC721/ERC721.sol\";\r\n\r\n/**\r\n * @title Tech Insurance tor\r\n * @dev complete the functions\r\n */\r\n\r\ncontract TechInsurance {\r\n    \r\n    struct Product {\r\n        uint productId;\r\n        string productName;\r\n        uint price;\r\n        bool offered;\r\n    }\r\n     \r\n    struct Client {\r\n        bool isValid;\r\n        uint time;\r\n    }\r\n    address payable public insOwner;\r\n    constructor(address payable _insOwner) public { //ERC721(\"AlphaToken\", \"alpha\")\r\n       insOwner = _insOwner;\r\n   }\r\n    \r\n    mapping(uint => Product) public productIndex;\r\n    mapping(address => mapping(uint => Client)) public client;\r\n  \r\n   mapping(address => uint256) private _balance;\r\n   mapping(uint256 => address) private _owners;\r\n   \r\n   function _balanceOf(address owner) public view returns(uint256){\r\n       require(owner !=address(0));\r\n       return _balance[owner];\r\n   }\r\n   \r\n    function _ownerOf(uint256 _id) public view returns(address){\r\n       address owner = _owners[_id];\r\n       require(owner != address(0));\r\n       return _owners[_id];\r\n   }\r\n  \r\n    \r\n    uint productCounter;\r\n    \r\n    //address payable public insOwner ;\r\n    \r\n \r\n    function addProduct(uint _productId, string memory _productName, uint _price ) public  {\r\n        Product memory newProduct = Product (_productId, _productName, _price, true);\r\n        productIndex[productCounter++] = newProduct;\r\n        _mint(msg.sender, productCounter);\r\n    //   address ownerOfAddress =  ownerOf(uint256(productCounter));\r\n    //   return ownerOfAddress;\r\n\r\n    }\r\n    \r\n    \r\n    function changeFalse(uint _productIndex) public  onlyOwner {\r\n        productIndex[_productIndex].offered = false;\r\n    }\r\n    \r\n    function changeTrue(uint _productIndex) public  onlyOwner{\r\n        productIndex[_productIndex].offered = true;\r\n    }\r\n    \r\n    modifier onlyOwner {\r\n      require(msg.sender == insOwner, \"you are not the owner\" );\r\n      _;\r\n      revert(\"do not run this function again it cost you some fees\");\r\n     }\r\n \r\n     \r\n    function changePrice(uint _productIndex, uint _price) public  onlyOwner{\r\n        productIndex[_productIndex].price = _price;\r\n    }\r\n\r\n    function buyInsurance(uint _productIndex) public  payable {\r\n        require(productIndex[_productIndex].offered == true, \"Tha Insurance is not available\");\r\n        Client memory newClient = Client (true, block.timestamp);\r\n        client[msg.sender][_productIndex] =   newClient ;\r\n        require(msg.value  == productIndex[_productIndex].price, \"check the amount of the Insurance\");\r\n        uint256 price = productIndex[_productIndex].price;\r\n        payable(msg.sender).transfer(price);\r\n\r\n    } \r\n   function transferInsurance( address to, uint256 _id) public {\r\n        //address owner=msg.sender;\r\n       require(msg.sender != to,\" You are the owner of this Insurance \");\r\n       require(_ownerOf(_id) == msg.sender,\" Your not the Owner \");\r\n        _transfer(msg.sender, to, _id);\r\n        \r\n    }\r\n    \r\n    function _transfer(address from, address to, uint256 tokenId) public {\r\n        require(to != address(0));\r\n\r\n        _balance[from] -= 1;\r\n        _balance[to] += 1;\r\n        _owners[tokenId] = to;\r\n\r\n    }\r\n    function _mint(address to, uint256 tokenId) internal virtual {\r\n        require(to != address(0));\r\n\r\n        _balance[to] += 1;\r\n        _owners[tokenId] = to;\r\n\r\n    }\r\n    \r\n\r\n\r\n\r\n\r\n    \r\n}\r\n",
  "sourcePath": "C:/Users/K1Amm/OneDrive/سطح المكتب/wwweek6/contracts/TechInsurance.sol",
  "compiler": {
    "name": "solc",
    "version": "0.7.0+commit.9e61f92b.Emscripten.clang"
  },
  "schemaVersion": "3.3.4",
  "updatedAt": "2021-03-08T21:25:32.182Z",
  "devdoc": {
    "details": "complete the functions",
    "kind": "dev",
    "methods": {},
    "title": "Tech Insurance tor",
    "version": 1
  },
  "userdoc": {
    "kind": "user",
    "methods": {},
    "version": 1
  }
}